:100000000C9481000C94A9000C94A9000C94A900F4
:100010000C94A9000C94A9000C94A9000C94A900BC
:100020000C94A9000C94A9000C94A9000C9421062E
:100030000C94A9000C94A9000C94A9000C94A9009C
:100040000C94D7050C94A9000C94A9000C94A90059
:100050000C94A9000C94A9000C94A9000C94A9007C
:100060000C94A9000C94A9004D6F64653A0000003F
:1000700000002300260029004552524F52203C31F7
:100080003056203E31355600434F4E54524F4C208F
:10009000564F4C544147450044414E47455221007C
:1000A0004443203135562050524F424C454D21009B
:1000B0000000000800020100000304070000000027
:1000C0000000000000000000250028002B000000B8
:1000D0000000240027002A0004040404040404048B
:1000E00002020202020203030303030301020408E3
:1000F0001020408001020408102001020408102092
:10010000D50911241FBECFEFD8E0DEBFCDBF11E06F
:10011000A0E0B1E0E4EEFAE102C005900D92AE3548
:10012000B107D9F721E0AEE5B1E001C01D92AE3ACA
:10013000B207E1F710E0C1E8D0E004C02197FE016A
:100140000E94890AC038D107C9F70E9469060C9439
:10015000700D0C94000090E0FC01E451FF4F2491DD
:1001600088529F4FFC018491882399F090E0880F7A
:10017000991FFC01E253FF4FA591B491FC01EC5390
:10018000FF4F859194918FB7F894EC91E22BEC930B
:100190008FBF089590E0FC01E055FF4F2491FC01D2
:1001A000E451FF4F3491FC01E852FF4FE491EE23FC
:1001B000C9F0222339F0233001F1A8F4213019F1DC
:1001C000223029F1F0E0EE0FFF1FEC53FF4FA59115
:1001D000B4918FB7F894EC91611126C030953E230D
:1001E0003C938FBF08952730A9F02830C9F0243000
:1001F00049F7809180008F7D03C0809180008F77C8
:1002000080938000DFCF84B58F7784BDDBCF84B54A
:100210008F7DFBCF8091B0008F778093B000D2CFDD
:100220008091B0008F7DF9CF3E2BDACFCF93DF9353
:10023000EC018BE00E94AB00209731F460E08BE092
:10024000DF91CF910C94CA00CF3FD10511F461E04A
:10025000F6CFEBEBF0E0E491E33029F140F4E1304C
:10026000B1F0E230D9F0C038D1058CF7E7CFE730F4
:1002700021F1E83051F1E430B1F7809180008062E3
:1002800080938000D0938B00C0938A0004C084B513
:10029000806884BDC7BDDF91CF91089584B5806229
:1002A00084BDC8BDF8CF80918000806880938000B5
:1002B000D0938900C0938800EECF8091B000806811
:1002C0008093B000C093B300E6CF8091B00080620D
:1002D0008093B000C093B400DECF8E5080648093D2
:1002E0007C0080917A00806480937A0080917A000B
:1002F00086FDFCCF809178009091790008953FB7FA
:10030000F89480918F0190919001A0919101B0910A
:10031000920126B5A89B05C02F3F19F00196A11D9B
:10032000B11D3FBFBA2FA92F982F8827BC01CD013F
:10033000620F711D811D911D42E0660F771F881F9E
:10034000991F4A95D1F708958F929F92AF92BF92CD
:10035000CF92DF92EF92FF924B015C010E947F01EE
:100360006B017C010E947F016C197D098E099F0938
:10037000683E734081059105A8F321E0821A910837
:10038000A108B10888EEC80E83E0D81EE11CF11C5C
:1003900081149104A104B10429F7FF90EF90DF903C
:1003A000CF90BF90AF909F908F9008952FB7F89403
:1003B00060918B0170918C0180918D0190918E01E3
:1003C0002FBF08950895AF92BF92CF92DF92EF9220
:1003D000FF920F931F93CF93DF936C017B018B01EF
:1003E000040F151FEB015E01AE18BF08C017D1073F
:1003F00059F06991D601ED91FC910190F081E02DC9
:10040000C6010995892B79F7C501DF91CF911F911D
:100410000F91FF90EF90DF90CF90BF90AF90089535
:1004200090E080E00895F894109281007894109202
:100430008000109285001092840010928900109222
:10044000880010925E011092730108951F93CF935C
:10045000DF93EC018B819C8194FB112710F9162707
:1004600096FF04C09F7B9C838B8311E08B819C81D2
:1004700091FD05C0112321F192609C838B830E9422
:10048000D60129813A81AB01421B530B2B813C8160
:100490001123B9F125FD19C032FD06C034603C833B
:1004A0002B837A83698304C0226242335105B8F7F3
:1004B0008B819C818F71992711E0892B09F410E0C1
:1004C000812FDF91CF911F91089537FDF1CF26FD48
:1004D0000AC0ED81A0E1EA9FF00111244E175F07E9
:1004E00038F32464DCCFE8ECF0E027FD05C0ED81B3
:1004F000A0E1EA9FF001112428684E175F0778F603
:10050000D7CF25FF17C04233510560F026FD03C049
:1005100088818F5F888337FD18822F7D206131604D
:100520003C832B838B819C8192FFC2CF9B7F9C83DA
:100530008B83BECF30FF0DC037FD03C020613C83ED
:100540002B832B813C813E773C832B837A83698389
:10055000E9CFE881EE2351F0C901807C9927892BEE
:1005600019F4443F5140F0F22160DACF31FFDACF85
:100570002F733D7F3860E8CFCF93DF93C82F8091F2
:10058000A9019091AA0180FD1092A6019C012F71F2
:100590003327232B29F0807E9093AA018093A90111
:1005A0008091AC0185FF03C08F7D8093AC0186EA0A
:1005B00091E00E942602D82F9091AC0196FF20C0B6
:1005C0009F7B9093AC018091A9019091AA0185FF36
:1005D0009BC090689093AA018093A9018091A90182
:1005E0009091AA0193FD05C098609093AA01809311
:1005F000A9018091AC0180628093AC0181E003C0CD
:10060000C7FF05C080E08D2BDF91CF9108958091C9
:10061000AD01282F2295207F259525952595259597
:10062000022E000C330B4C2F0C2E000C550B2417F4
:10063000350741F3220F331F220F331F242B352B95
:10064000220F331F41E656E164E979E404C0759551
:100650006795579547952A95D2F743708595859567
:10066000859585958150480F4295407F45954595E4
:1006700045954595842F8295807F2C2F2F70822B56
:100680008093AD01807F09F4BDCF892F83708130C5
:1006900081F158F1823081F131E014160CF030E034
:1006A00092FB222720F98091AD018F708093AD01DC
:1006B000321731F190619093AC010E94D6012091E4
:1006C000A7013091A801AB01421B530B9A01409145
:1006D000AC017093A8016093A701842F2E313105DE
:1006E00088F488608093AC016ECFC33009F08ACF64
:1006F000D3CFCC2389F286CFC150C23068F682CFE7
:100700009F7ED9CF877FEECF1092A60167CFCF9281
:10071000DF92EF92FF920F931F93CF93DF93EC0141
:100720006C0186E0C80ED11C10E000E0E62EF12C32
:10073000B701002E02C0759567950A94E2F76170C3
:10074000F60181916F010E94CA000F5F1F4F0430B4
:10075000110571F760E08D810E94CA0061E08D8112
:100760000E94CA0060E08D810E94CA008BE990E07F
:100770000197F1F7DF91CF911F910F91FF90EF90CB
:10078000DF90CF9008951F93CF93DF93EC01162F46
:10079000642F8C810E94CA00612F70E084E07595FF
:1007A00067958A95E1F7CE010E948703612FCE01FC
:1007B000DF91CF911F910C94870341E00E94C30306
:1007C00081E090E00895EF92FF920F931F93CF93F3
:1007D000DF93CDB7DEB7EDB6FEB66091A00170E055
:1007E0006F5F7F4F8DB79EB7861B970B0FB6F89440
:1007F0009EBF0FBE8DBF0DB71EB70F5F1F4F9E016F
:10080000235F3F4F4B855C85C8010E948F0AF8012A
:1008100061918F01662329F083E991E00E94DD0355
:10082000F6CF0FB6F894FEBE0FBEEDBEDF91CF91AE
:100830001F910F91FF90EF9008950F931F93CF9307
:10084000DF938C01D0E0C0E0F801EC0FFD1F649154
:10085000662339F041E083E991E00E94C3032196C9
:10086000F3CFCE01DF91CF911F910F910895815069
:1008700061509091A101891710F08FEF890FE82F37
:10088000F0E0ED56FE4F8785680F606840E083E931
:1008900091E00C94C3030F931F93CF93DF9362E017
:1008A00081E00E94370480917C011F928F9383E145
:1008B00091E09F938F93C3E9D1E0DF93CF930E94A0
:1008C000E30362E082E00E94370480917D011F9281
:1008D0008F938EE191E09F938F93DF93CF930E944C
:1008E000E30362E083E00E94370480917E011F925F
:1008F0008F9388E291E09F938F93DF93CF930E9431
:10090000E30362E084E00E943704809180018F93CA
:1009100080917F018F9382E391E09F938F93DF9388
:10092000CF930E94E3036DE081E00E943704809141
:100930008201282F082E000C330B3F938F938BE3FB
:1009400091E09F938F93DF93CF930E94E3036DE039
:1009500082E00E94370488E690E00E941D048DB773
:100960009EB74E960FB6F8949EBF0FBE8DBF809176
:10097000810164E1882309F463C082E00E943704A6
:1009800061E4CE010E94DD036DE083E00E94370444
:1009900080918301909184010AE010E0B8010E94E7
:1009A000750A9F938F937F936F9385E491E09F9354
:1009B0008F93C3E9D1E0DF93CF930E94E3036DE00F
:1009C00084E00E943704E0918501F0918601CF0117
:1009D000059624E630E0B9010E94750AB8010E942C
:1009E000750A7F936F93CF01B9010E94750A7F93B7
:1009F0006F9381E591E09F938F93DF93CF930E9454
:100A0000E3038DB79EB740960FB6F8949EBF0FBE16
:100A10008DBF80910001823029F1CCF48823F9F058
:100A200061E08130D1F0809174016EE781116EE355
:100A300083E991E0DF91CF911F910F910C94DD0339
:100A400082E00E9437046DE483E991E09BCF84301B
:100A500089F06CF06CE0853031F782E005C061E030
:100A600081E002C061E083E00E943704DCCF61E0F6
:100A700084E0FACF6CE0F4CF40E061E083E991E0FC
:100A80000E94C30362E070E080E090E00C94A40157
:100A900090E09C0124513F4F88529F4FF9016130F3
:100AA00009F440C0623001F14491FC015491E52FFA
:100AB000F0E0EE0FFF1FE253FF4FA591B4915C9160
:100AC000409545234C93F9012491FC018491E82F32
:100AD000F0E0EE0FFF1FEC53FF4FA591B4918C9106
:100AE000209528232C9308954491FC015491E52FDF
:100AF000F0E0EE0FFF1FE253FF4FA591B4915C9120
:100B0000409545234C93F9012491FC018491E82FF1
:100B1000F0E0EE0FFF1FEC53FF4FA591B4918C91C5
:100B2000282BE0CF2491FC018491E82FF0E0EE0F18
:100B3000FF1FE253FF4FF1CF90E0FC01E852FF4F5F
:100B4000E491F0E0EE0FFF1FE259FF4FA591B49141
:100B50002C9184519F4FFC018491822391E009F4F0
:100B600090E0892F0895CF938CE00E949C05C82FB8
:100B70008DE00E949C05880F8C2BCF910895CF9318
:100B8000DF93EC018E810E949C052B813C8120FD2E
:100B90001882A9014F715527452B19F0207E3C83FF
:100BA0002B83682FCE01DF91CF910C9426021F92E8
:100BB0000F920FB60F9211242F933F938F939F9311
:100BC000AF93BF9380918B0190918C01A0918D0187
:100BD000B0918E0130918A0123E0230F2D3758F513
:100BE0000196A11DB11D20938A0180938B019093E2
:100BF0008C01A0938D01B0938E0180918F01909113
:100C00009001A0919101B09192010196A11DB11D99
:100C100080938F0190939001A0939101B0939201E2
:100C2000BF91AF919F918F913F912F910F900FBEE8
:100C30000F901F90189526E8230F0296A11DB11D55
:100C4000D2CF1F920F920FB60F9211242F933F9382
:100C50004F935F936F937F938F939F93AF93BF93C4
:100C6000EF93FF9380915E018F5F80935E0180918F
:100C70005E01823021F198F48130C1F0FF91EF9153
:100C8000BF91AF919F918F917F916F915F914F91A4
:100C90003F912F910F900FBE0F901F9018958330AA
:100CA00099F0843059F70E941302E8CF80917101C6
:100CB000909172019093890080938800DFCF80919A
:100CC0006F0190917001F6CF80916D0190916E014E
:100CD000F1CF789484B5826084BD84B5816084BD91
:100CE00085B5826085BD85B5816085BD80916E00CA
:100CF000816080936E0010928100809181008260FB
:100D00008093810080918100816080938100809137
:100D100080008160809380008091B1008460809326
:100D2000B1008091B00081608093B00080917A0022
:100D3000846080937A0080917A00826080937A0048
:100D400080917A00816080937A0080917A00806837
:100D500080937A001092C1000E9413028AE00E94E0
:100D6000AB0089E00E94AB008091820123E3820204
:100D7000C00111240E94160184E08093A10184E146
:100D80008093A0011092A20190E49093A30180931C
:100D9000A40184E58093A50188E080939D01809162
:100DA00097010E94AB00809198010E94AB00C9E9B5
:100DB000D1E00DE911E089910E94AB000C171D07ED
:100DC000D1F762E370E080E090E00E94A40160E06F
:100DD000809197010E94CA0060E0809198010E9472
:100DE000CA0063E083E991E00E94870364E070E059
:100DF00080E090E00E94A40163E083E991E00E941A
:100E0000870364E070E080E090E00E94A40163E06A
:100E100083E991E00E94870383E592E00197F1F76F
:100E200062E083E991E00E94870360919D01606226
:100E300040E083E991E00E94C30384E080939E0137
:100E400040E06CE083E991E00E94C3030E943C050E
:100E500082E080939F0140E066E083E991E00E9498
:100E6000C30382E18093650162E00E94480580919E
:100E7000620190916301906190936301809362019C
:100E800083E180937B0160E00E94480580917801B6
:100E9000909179019F7E90937901809378018EE300
:100EA00080937A01C1E0E2E3DE2E0FEF13E0F4E27B
:100EB000CF2EA0E0EA2EA0E0FA2EAA24A394DAEF27
:100EC00075E0B72E8FE00E946D01909389018093A9
:100ED00088018D5392408931914008F442C00E94AC
:100EE000130281E08093870180916A01837F8F7D67
:100EF00080936A010E943C0562E081E00E94370411
:100F000080EA90E00E941D0466E082E00E943704BF
:100F100088E990E00E941D0462E083E00E943704AB
:100F200088E890E00E941D0463E084E00E9437049A
:100F300088E790E00E941D0461E08AE00E94CA00F8
:100F400068EE73E080E090E00E94A40160E08AE037
:100F50000E94CA0064EF71E080E090E00E94A4016A
:100F6000EBCF80916A01982F9C709430F9F485FF43
:100F700014C080916A01982F9370913009F410C1C8
:100F800008F4EDC0923009F410C1E0916B01F091CA
:100F90006C01309759F0099509C00E94D6018091E3
:100FA0006801681B80916901681718F78091AC018E
:100FB00087FFFDC088E00E949C05682F8FEF0E948C
:100FC000BC0285E791E00E94BF058FE591E00E9499
:100FD000BF058EE00E946D019C01D29EC001D39E90
:100FE000900D1124B8010E94750A709384016093DA
:100FF00083012091880130918901D29EC001D39E46
:10100000900D1124B8010E94750AC69EC001C79EAA
:10101000900D112490938601809385018091780131
:1010200082FF48C080918701811144C08091730183
:1010300081112AC080917E0120917D0140917C0127
:101040004D9FA001112450937201409371012D9F77
:10105000900111243093700120936F018D9FC00186
:10106000112490936E0180936D01809181008860BE
:1010700080938100809180008064809380008091C3
:101080006F00826080936F0080917301811112C0A4
:101090008091730181110EC0F8948091810083606A
:1010A0008093810080918200806880938200789490
:1010B000A09273018091A9019091AA01807591700D
:1010C000409749F480918701811105C08091740196
:1010D0008C27809374018091AC0185FF79C0809149
:1010E0008701811175C00E943C058091AC01982F49
:1010F000907284FF21C1992309F466C02091A9014F
:101100003091AA0137FD0CC080917401811108C093
:10111000809100018F5F86300CF051C080930001F8
:1011200037FD52C080917401882309F44DC080912D
:101130000001823009F46DC00CF051C0882309F41D
:101140005AC0813009F040C080917D018F5F09F461
:101150005EC0893C08F088EC80937D0135C084FF37
:101160001AC00E94D60120916801862F821B3091FF
:101170006901432F50E0440F551F841715064CF0AA
:10118000632F0E94690A389F200D11242093680163
:10119000FCCE81E0F8CF0E94D60160936801F5CEC5
:1011A000837F8F7D80936A01F0CE8062FBCF88E0E1
:1011B0000E949C05982E0E94B305692D00CFB09225
:1011C0000001AECF109200018091AC0184FFC8C035
:1011D000E114F10409F476CE0E94000070CE843050
:1011E00009F440C014F1853079F7809181018C2792
:1011F00080938101E9CF80917C018F5F31F083334F
:1012000008F082E380937C01DFCF81E0FBCF81E0B7
:10121000A3CF80917E018F5F31F0833308F082E3AA
:1012200080937E01D1CF81E0FBCF80917F019091AF
:1012300080018C599F4F813D37E0930710F080ED7E
:1012400097E0883C910510F488EC90E09093800141
:1012500080937F0134E0969587953A95E1F78093E6
:101260007A01B2CF809182018F5F863054F085E0A1
:101270008093820123E38202C00111240E9416019F
:10128000A3CF87FFF5CF80E0F3CF843009F441C0CE
:101290001CF1853009F09CCF809181018C278093CF
:1012A000810196CF80917C01815031F0833308F029
:1012B00082E380937C018CCF81E0FBCF81E072C020
:1012C00080917E01815031F0833308F082E3809376
:1012D0007E017ECF81E0FBCF80917F0190918001E4
:1012E00084569109813D37E0930710F080ED97E037
:1012F000883C910510F488EC90E0909380018093F5
:101300007F0124E0969587952A95E1F780937A01ED
:101310005FCF809182018150863054F085E08093C8
:10132000820123E38202C00111240E94160150CFE2
:1013300087FFF5CF80E0F3CF992391F02091A901A9
:101340003091AA0137FD0CC090917401911108C031
:1013500090910001915019160CF034CF9093000138
:1013600085FF36CF8091A9019091AA0197FD30CFDA
:1013700080917401882309F42BCF80910001823081
:1013800009F49ECF0CF081CF882309F48BCF8130F4
:1013900009F01ECF80917D01815009F48FCF893CE7
:1013A00008F088EC80937D0113CFEF92FF920F93AA
:1013B0001F93CF93DF93C6EAD1E01A8219821C8271
:1013C0001B8215E21D831E821F8260E08CE00E945A
:1013D000480560E08DE00E94480562E088E00E94D8
:1013E00048058B819C8190619C838B830E94B3050F
:1013F000EDEAF1E0982F9F708081807F892B8083B8
:10140000E3E9F1E01382128285E091E09183808329
:1014100087E0848386E0858382E0868383E0878318
:1014200084E0808705E00187C6E6D1E08EEF8B83FC
:101430008AE6E82E81E0F82EF70180818C7E8F7D90
:1014400080830E94D6016A83F7018081837F846054
:101450008F7D80838BE494E09E838D8381E191E096
:1014600099838883CFE5D1E01A8219821C821B827E
:101470001D831E8262E080E00E9448058B819C8172
:1014800090619C838B83C5E7D1E01A8219821C820C
:101490001B821D831E8262E080E00E9448058B81D2
:1014A0009C8190619C838B83ECE7F1E089E18083F0
:1014B00084E6818382E3828388EE93E0948383834E
:1014C00015820683DF91CF911F910F91FF90EF90CE
:1014D0000895991B79E004C0991F961708F0961B90
:1014E000881F7A95C9F780950895AA1BBB1B51E107
:1014F00007C0AA1FBB1FA617B70710F0A61BB70B84
:10150000881F991F5A95A9F780959095BC01CD0128
:101510000895EE0FFF1F0590F491E02D0994AEE0C1
:10152000B0E0E5E9FAE00C94470D8C01FA0186E0A1
:101530008C831A83098377FF02C060E070E86150F2
:1015400071097E836D83A901BF01CE0101960E94BE
:10155000BB0A4D815E8157FD0AC02F813885421735
:1015600053070CF49A01020F131FF80110822E96F4
:10157000E4E00C94630DABE0B0E0E1ECFAE00C9435
:10158000390D7C013B018A01FC011782168283819F
:1015900081FFC8C1CE0101965C01F7019381F3017F
:1015A00093FD859193FF81913F01882309F453C1F5
:1015B000853239F493FD859193FF81913F01853206
:1015C00029F4B70190E00E94AB0CE7CF912C212CBD
:1015D000312CFFE1F31538F08B3211F190F48032A9
:1015E00009F1833229F137FC3CC020ED280F2A3065
:1015F00050F536FE20C08AE0989E200D1124922ED0
:1016000006C08D3291F0803371F7689430F8F301A1
:1016100093FD859193FF81913F018111DACF21C024
:10162000689431F8689432F8F2CF689433F8EFCFC9
:10163000689434F8ECCFEAE02E9E200D1124222E7F
:10164000689435F8E4CF8E3229F436FC04C16894EE
:1016500036F8DDCF8C3619F4689437F8D8CF883651
:10166000B1F2982F9F7D95549330E0F08336A1F12D
:101670008337C1F1833509F063C02801F2E04F0ED2
:10168000511CF801C080D180692D70E036FC02C089
:101690006FEF7FEFC6010E94950C4C01689437F8FC
:1016A00082010AC00C5F1F4FFFE3F98388248394F3
:1016B000912C6501E89437F833FE2DC0522C81142B
:1016C000910471F5552009F468CFB70180E290E0EC
:1016D0000E94AB0C5A94F6CFF801808189830E5F8B
:1016E0001F4FE4CF2801F2E04F0E511CF801C080DB
:1016F000D180692D70E036FC02C06FEF7FEFC6012C
:101700000E94A00C4C018201D5CFB70180E290E08D
:101710000E94AB0C2A942814190409F0B0F7CECF1C
:10172000F60137FC859137FE81916F01B70190E09A
:101730000E94AB0C51105A94F1E08F1A9108BFCF60
:10174000843619F0893609F077C0F80137FE6BC08E
:1017500060817181828193810C5F1F4FF32DFF7631
:101760003F2E97FF09C090958095709561957F4FAA
:101770008F4F9F4F689437F82AE030E0A5010E9410
:10178000DB0CC82ECA188C2C432C36FE0CC0E894F7
:1017900040F8C91440F434FE05C032FC03C0F32DF8
:1017A000FE7E4F2E892C44FE95C0FE01EC0DF11DEE
:1017B0008081803309F087C0242D297E422E842D1C
:1017C0008870582E43FC95C040FE8FC09C2C82141C
:1017D00018F42C0C922C981844FE91C0B70180E3A9
:1017E00090E00E94AB0C42FE09C088E790E041FE09
:1017F00002C088E590E0B7010E94AB0CC91408F460
:101800008AC0CA94D12C9FEFC91AD90ACA0CDB1C12
:10181000F60182916F01B70190E00E94AB0CAC140D
:10182000BD04B1F74FCF60817181072E000C880B8A
:10183000990B0E5F1F4F92CFD32CE894D4F82AE077
:1018400030E0853739F1232D297FD22E8F3601F1F3
:1018500048F48835A9F0F701868197812B96E2E15B
:101860000C94550D803749F08837A9F7D4FE02C093
:101870006894D2F820E130E00DC06894D4F8F6CF37
:1018800034FE03C0822F8660D82E20E132E002C0F1
:1018900028E030E0F801D7FE0FC0608171818281BD
:1018A00093810C5F1F4FA5010E94DB0CC82ECA1844
:1018B0003D2CE89437F867CF6081718190E080E03B
:1018C0000E5F1F4FF0CF42FC02C0839478CF839409
:1018D000839475CF842D867809F471CFF6CFB70144
:1018E00080E290E00E94AB0C83948214C0F3512CF0
:1018F00073CF522C5818821408F46ECFF8CF842D71
:10190000867809F47BCF8BE241FE80E247FC8DE2D2
:10191000B70190E071CFB70180E390E00E94AB0C7B
:101920009A946CCF8FEF9FEF99CFFC010590615097
:1019300070400110D8F7809590958E0F9F1F0895E5
:10194000FC016150704001900110D8F7809590958E
:101950008E0F9F1F08950F931F93CF93DF93182F20
:10196000092FEB018B8181FD09C01FEF0FEF812F44
:10197000902FDF91CF911F910F91089582FF14C096
:101980002E813F818C819D81281739073CF4E881A5
:10199000F981CF0101969983888310838E819F817D
:1019A00001969F838E83E3CFE885F985812F099582
:1019B000892BA1F3DACFFA01AA27283051F120317F
:1019C00081F1E8946F936E7F6E5F7F4F8F4F9F4FD3
:1019D000AF4FB1E03ED0B4E03CD0670F781F891F15
:1019E0009A1FA11D680F791F8A1F911DA11D6A0FE3
:1019F000711D811D911DA11D20D009F468943F9196
:101A00002AE0269F11243019305D3193DEF6CF0194
:101A10000895462F4770405D4193B3E00FD0C9F75A
:101A2000F6CF462F4F70405D4A3318F0495D31FDC7
:101A30004052419302D0A9F7EACFB4E0A69597951A
:101A4000879577956795BA95C9F7009761057105F0
:101A500008959B01AC010A2E06945795479537953A
:101A60002795BA95C9F7620F731F841F951FA01D94
:101A700008952F923F924F925F926F927F928F9232
:101A80009F92AF92BF92CF92DF92EF92FF920F930D
:101A90001F93CF93DF93CDB7DEB7CA1BDB0B0FB617
:101AA000F894DEBF0FBECDBF09942A8839884888D4
:101AB0005F846E847D848C849B84AA84B984C8846A
:101AC000DF80EE80FD800C811B81AA81B981CE0F61
:101AD000D11D0FB6F894DEBF0FBECDBFED01089546
:041AE000F894FFCFA8
:101AE4000100000000DD03E3011002E20100000038
:101AF40000E20150313A20253264206D7300543ADB
:101B040020253364206D730050323A253364206DF0
:101B14007300533A253464206D7300424C3A2020FC
:101B24002020256400426174202531642E2531640F
:0E1B340000447276202532642E2531640000B4
:00000001FF
